:100000000C942A000C9434000C9434000C943400AA
:100010000C9434000C9434000C9434000C94340090
:100020000C9434000C9434000C9434000C94340080
:100030000C9434000C9434000C9434000C94340070
:100040000C9434000C9434000C9434000C94340060
:100050000C94340011241FBECFE5D4E0DEBFCDBF29
:100060000E94AE050C9448060C940000DF93CF93D9
:10007000CDB7DEB7A7E2B0E0E7E2F0E080818064D0
:100080008C93A7E2B0E0E7E2F0E080818F778C9379
:10009000A7E2B0E0E7E2F0E0808180628C93A6E224
:1000A000B0E0E6E2F0E080818F7D8C93A6E2B0E0E4
:1000B000E6E2F0E080818E7F8C93A6E2B0E0E6E29B
:1000C000F0E080818D7F8C93A6E2B0E0E6E2F0E084
:1000D00080818B7F8C93A6E2B0E0E6E2F0E0808145
:1000E00087608C93A6E2B0E0E6E2F0E08081806871
:1000F0008C93CF91DF910895DF93CF930F92CDB77B
:10010000DEB78983A7E2B0E0E7E2F0E080818E7F8E
:100110008C93A7E2B0E0E7E2F0E080818D7F8C93E2
:10012000A7E2B0E0E7E2F0E080818B7F8C93A7E26A
:10013000B0E0E7E2F0E08081877F8C93A7E2B0E057
:10014000E7E2F0E080818F7E8C93A7E2B0E0E7E207
:10015000F0E090818981892B8C93A6E2B0E0E6E201
:10016000F0E0808180648C93E6E2F0E0808182950B
:100170008F70882F90E0817090700097A9F7A6E2A9
:10018000B0E0E6E2F0E0808180618C93E5E2F0E0AF
:1001900080810F90CF91DF910895DF93CF93CDB7FA
:1001A000DEB728970FB6F894DEBF0FBECDBF8A83A7
:1001B0006B834C8319828B81883008F0F1C08C816D
:1001C000813009F072C08A81282F30E038872F8370
:1001D0008F8198858130910549F12F8138852230B2
:1001E00031052CF48F819885009761F05BC02F81D9
:1001F00038852230310571F18F81988583309105E2
:10020000E9F150C0AAE3B0E0EAE3F0E08081482FD2
:100210008B81282F30E081E090E0022E02C0880F11
:10022000991F0A94E2F7842B8C93BCC0A7E3B0E03B
:10023000E7E3F0E08081482F8B81282F30E081E0D8
:1002400090E0022E02C0880F991F0A94E2F7842BD7
:100250008C93A8C0A4E3B0E0E4E3F0E08081482FF1
:100260008B81282F30E081E090E0022E02C0880FC1
:10027000991F0A94E2F7842B8C9394C0A1E3B0E019
:10028000E1E3F0E08081482F8B81282F30E081E08E
:1002900090E0022E02C0880F991F0A94E2F7842B87
:1002A0008C9380C081E089837DC08C81882309F094
:1002B00079C08A81282F30E03E832D838D819E81F5
:1002C0008130910559F12D813E81223031052CF488
:1002D0008D819E81009769F060C02D813E81223022
:1002E000310589F18D819E818330910509F440C0EB
:1002F00054C0AAE3B0E0EAE3F0E08081482F8B81AC
:10030000282F30E081E090E0022E02C0880F991F74
:100310000A94E2F7809584238C9344C0A7E3B0E06D
:10032000E7E3F0E08081482F8B81282F30E081E0E7
:1003300090E0022E02C0880F991F0A94E2F7809580
:1003400084238C932FC0A4E3B0E0E4E3F0E0808149
:10035000482F8B81282F30E081E090E0022E02C0F0
:10036000880F991F0A94E2F7809584238C931AC012
:10037000A1E3B0E0E1E3F0E08081482F8B81282FFA
:1003800030E081E090E0022E02C0880F991F0A94AD
:10039000E2F7809584238C9305C081E0898302C0B5
:1003A00081E08983898128960FB6F894DEBF0FBE5D
:1003B000CDBFCF91DF910895DF93CF93CDB7DEB757
:1003C00028970FB6F894DEBF0FBECDBF8A836B832C
:1003D0004C8319828B81883008F0F3C08C81813086
:1003E00009F072C08A81282F30E038872F838F81EF
:1003F00098858130910549F12F813885223031056A
:100400002CF48F819885009761F05BC02F8138852F
:100410002230310571F18F81988583309105E9F1A2
:1004200050C0ABE3B0E0EBE3F0E08081482F8B817C
:10043000282F30E081E090E0022E02C0880F991F43
:100440000A94E2F7842B8C93BCC0A8E3B0E0E8E305
:10045000F0E08081482F8B81282F30E081E090E010
:10046000022E02C0880F991F0A94E2F7842B8C9306
:10047000A8C0A5E3B0E0E5E3F0E08081482F8B81E0
:10048000282F30E081E090E0022E02C0880F991FF3
:100490000A94E2F7842B8C9394C0A2E3B0E0E2E3E9
:1004A000F0E08081482F8B81282F30E081E090E0C0
:1004B000022E02C0880F991F0A94E2F7842B8C93B6
:1004C00080C081E089837DC08C81882309F077C05A
:1004D0008A81282F30E03E832D838D819E8181305B
:1004E000910559F12D813E81223031052CF48D8109
:1004F0009E81009769F060C02D813E8122303105D8
:1005000089F18D819E818330910509F440C054C0EA
:10051000ABE3B0E0EBE3F0E08081482F8B81282F44
:1005200030E081E090E0022E02C0880F991F0A940B
:10053000E2F7809584238C9344C0A8E3B0E0E8E31D
:10054000F0E08081482F8B81282F30E081E090E01F
:10055000022E02C0880F991F0A94E2F78095842327
:100560008C932FC0A5E3B0E0E5E3F0E08081482F55
:100570008B81282F30E081E090E0022E02C0880FAE
:10058000991F0A94E2F7809584238C931AC0A2E302
:10059000B0E0E2E3F0E08081482F8B81282F30E04B
:1005A00081E090E0022E02C0880F991F0A94E2F7C2
:1005B000809584238C9305C081E0898302C081E00B
:1005C0008983898128960FB6F894DEBF0FBECDBF10
:1005D000CF91DF910895DF93CF93CDB7DEB7279703
:1005E0000FB6F894DEBF0FBECDBF8A836B8319822E
:1005F0008B818130B1F58A81282F30E03F832E83B3
:100600008E819F8181309105D1F02E813F812230F2
:1006100031052CF48E819F81009761F01FC02E81DF
:100620003F812230310581F08E819F818330910599
:1006300081F014C0EAE3F0E08FEF808349C0E7E384
:10064000F0E08FEF808344C0E4E3F0E08FEF80833D
:100650003FC0E1E3F0E08FEF80833AC081E089831F
:1006600037C08B81882391F58A81282F30E03D8324
:100670002C838C819D8181309105C9F02C813D8135
:10068000223031052CF48C819D81009761F01BC0D4
:100690002C813D812230310571F08C819D81833028
:1006A000910569F010C0EAE3F0E0108211C0E7E3C1
:1006B000F0E010820DC0E4E3F0E0108209C0E1E355
:1006C000F0E0108205C081E0898302C081E0898367
:1006D000898127960FB6F894DEBF0FBECDBFCF91AC
:1006E000DF910895DF93CF93CDB7DEB727970FB68D
:1006F000F894DEBF0FBECDBF8A836B8319828B81D6
:100700008130B1F58A81282F30E03F832E838E819E
:100710009F8181309105D1F02E813F8122303105BA
:100720002CF48E819F81009761F01FC02E813F8144
:100730002230310581F08E819F818330910581F0D7
:1007400014C0EBE3F0E08FEF808349C0E8E3F0E012
:100750008FEF808344C0E5E3F0E08FEF80833FC0FC
:10076000E2E3F0E08FEF80833AC081E0898337C015
:100770008B81882391F58A81282F30E03D832C835B
:100780008C819D8181309105C9F02C813D81223081
:1007900031052CF48C819D81009761F01BC02C8168
:1007A0003D812230310571F08C819D81833091052E
:1007B00069F010C0EBE3F0E0108211C0E8E3F0E074
:1007C00010820DC0E5E3F0E0108209C0E2E3F0E042
:1007D000108205C081E0898302C081E0898389811C
:1007E00027960FB6F894DEBF0FBECDBFCF91DF9135
:1007F0000895DF93CF93CDB7DEB727970FB6F89460
:10080000DEBF0FBECDBF8A836B835D834C831982AD
:100810008B81883008F074C08A81282F30E03F83B4
:100820002E834E815F814130510559F18E819F8128
:100830008230910534F42E813F812115310569F014
:100840005CC04E815F814230510579F18E819F817C
:100850008330910509F43DC050C0E9E3F0E08081A8
:10086000282F30E08B81882F90E0A90102C0559598
:1008700047958A95E2F7CA018170EC81FD818083FA
:1008800041C0E6E3F0E08081282F30E08B81882FA3
:1008900090E0A90102C0559547958A95E2F7CA01F3
:1008A0008170EC81FD8180832DC0E3E3F0E08081E5
:1008B000282F30E08B81882F90E0A90102C0559548
:1008C00047958A95E2F7CA018170EC81FD818083AA
:1008D00019C0E0E3F0E08081282F30E08B81882F81
:1008E00090E0A90102C0559547958A95E2F7CA01A3
:1008F0008170EC81FD81808305C081E0898302C025
:1009000081E08983898127960FB6F894DEBF0FBEF8
:10091000CDBFCF91DF910895DF93CF9300D000D06A
:1009200000D0CDB7DEB78A836B834C8319828B816D
:10093000883008F072C08A81282F30E03E832D83F2
:100940008D819E818130910549F12D813E8122303A
:1009500031052CF48D819E81009761F05BC02D8163
:100960003E812230310571F18D819E818330910568
:10097000E9F150C0A9E3B0E0E9E3F0E08081482F5D
:100980008B81282F30E081E090E0022E02C0880F9A
:10099000991F0A94E2F784278C9341C0A6E3B0E044
:1009A000E6E3F0E08081482F8B81282F30E081E062
:1009B00090E0022E02C0880F991F0A94E2F7842764
:1009C0008C932DC0A3E3B0E0E3E3F0E08081482FF7
:1009D0008B81282F30E081E090E0022E02C0880F4A
:1009E000991F0A94E2F784278C9319C0A0E3B0E022
:1009F000E0E3F0E08081482F8B81282F30E081E018
:100A000090E0022E02C0880F991F0A94E2F7842713
:100A10008C9305C081E0898302C081E0898389814C
:100A200026960FB6F894DEBF0FBECDBFCF91DF91F3
:100A30000895DF93CF9300D0CDB7DEB789836A8363
:100A400089816A8140E00E94CD0089816A8141E00C
:100A50000E94DC010F900F90CF91DF910895DF93FA
:100A6000CF9300D000D00F92CDB7DEB78A836B83CF
:100A700019828A81843008F066C08B818295807FDC
:100A80008B838A81282F30E03D832C838C819D814C
:100A90008130910529F12C813D81223031052CF4E2
:100AA0008C819D81009761F04BC02C813D8122306B
:100AB000310531F18C819D818330910589F140C0F0
:100AC000ABE3B0E0EBE3F0E080818F708C93ABE3BD
:100AD000B0E0EBE3F0E090818B81892B8C9335C003
:100AE000A8E3B0E0E8E3F0E080818F708C93A8E3A6
:100AF000B0E0E8E3F0E090818B81892B8C9325C0F6
:100B0000A5E3B0E0E5E3F0E080818F708C93A5E38E
:100B1000B0E0E5E3F0E090818B81892B8C9315C0E8
:100B2000A2E3B0E0E2E3F0E080818F708C93A2E377
:100B3000B0E0E2E3F0E090818B81892B8C9305C0DB
:100B400081E0898302C081E0898389810F900F90C1
:100B50000F900F900F90CF91DF910895DF93CF9377
:100B6000CDB7DEB727970FB6F894DEBF0FBECDBF67
:100B70001F821B821C821D821E821A8219820E9481
:100B8000360083E060E041E00E94CD0080E00E94FA
:100B90007C008F838F81882F90E0A0E0B0E028E870
:100BA00033E140E050E0BC01CD010E940706DC01CA
:100BB000CB01892F9A2FAB2FBB278B839C83AD83CF
:100BC000BE838B819C81AD81BE812AE030E040E014
:100BD00050E0BC01CD010E942606DA01C9019A83CA
:100BE000898389819A818F31910530F483E060E0B7
:100BF00041E00E94DC01CACF89819A818F31910541
:100C000028F283E060E040E00E94DC01BFCF629FF9
:100C1000D001739FF001829FE00DF11D649FE00DF4
:100C2000F11D929FF00D839FF00D749FF00D659F55
:100C3000F00D9927729FB00DE11DF91F639FB00D54
:100C4000E11DF91FBD01CF0111240895A1E21A2E63
:100C5000AA1BBB1BFD010DC0AA1FBB1FEE1FFF1F60
:100C6000A217B307E407F50720F0A21BB30BE40BB0
:100C7000F50B661F771F881F991F1A9469F76095F7
:100C80007095809590959B01AC01BD01CF010895B1
:040C9000F894FFCF06
:00000001FF
